:100000000C9434000C943E000C943E000C943E0082
:100010000C943E000C943E000C943E000C943E0068
:100020000C943E000C943E000C943E000C943E0058
:100030000C943E000C943E000C943E000C943E0048
:100040000C943E000C943E000C943E000C943E0038
:100050000C943E000C943E000C943E000C943E0028
:100060000C943E000C943E0011241FBECFEFD8E04C
:10007000DEBFCDBF0E9440000C9466000C940000CF
:100080008FEF84B940E081E090E0473078F49C0144
:10009000042E01C0220F0A94EAF725B9E1E0F3E546
:1000A0003197F1F700C000004F5FEFCF9C01042EA5
:1000B00001C0220F0A94EAF725B9E1E0F3E5319790
:1000C000F1F700C00000415089F7E1CFF894FFCF6D
:00000001FF
