:100000000C9434000C943E000C943E000C943E0082
:100010000C943E000C943E000C943E000C943E0068
:100020000C943E000C943E000C943E000C943E0058
:100030000C943E000C943E000C943E000C943E0048
:100040000C943E000C943E000C943E000C943E0038
:100050000C943E000C943E000C943E000C943E0028
:100060000C943E000C943E0011241FBECFEFD8E04C
:10007000DEBFCDBF0E9440000C949C000C94000099
:100080008FEF84B99EE028E13DEB46E78CE395B91C
:10009000E3EFF1E03197F1F700C0000025B9E3EF9D
:1000A000F1E03197F1F700C0000035B9E3EFF1E07E
:1000B0003197F1F700C0000045B9E3EFF1E0319767
:1000C000F1F700C0000085B9E3EFF1E03197F1F7F7
:1000D00000C0000085B9E3EFF1E03197F1F700C00F
:1000E000000085B9E3EFF1E03197F1F700C00000BF
:1000F00045B9E3EFF1E03197F1F700C0000035B901
:10010000E3EFF1E03197F1F700C0000025B9E3EF2C
:10011000F1E03197F1F700C0000095B9E3EFF1E0AD
:100120003197F1F700C0000015B8E3ECF9E0319722
:0C013000F1F700C00000ABCFF894FFCF47
:00000001FF
